:020000040800F2
:100000003808002089010008332000083F1C000840
:10001000DD1E00088F020008A9270008000000006C
:10002000000000000000000000000000C1200008E7
:10003000930200080000000097200008C320000879
:10004000A3010008A3010008A3010008A301000800
:10005000A3010008A3010008A3010008A3010008F0
:10006000A3010008A3010008A3010008A3010008E0
:10007000A3010008A3010008A3010008A3010008D0
:10008000A3010008A3010008A3010008A3010008C0
:10009000A3010008A3010008A3010008A3010008B0
:1000A000A3010008A3010008A3010008A3010008A0
:1000B000A301000835210008A3010008A3010008DE
:1000C000A3010008A3010008A3010008A301000880
:1000D000A301000815270008A30100082527000830
:1000E000A3010008A3010008A301000800F002F822
:1000F00000F03AF80AA090E8000C82448344AAF188
:100100000107DA4501D100F02FF8AFF2090EBAE885
:100110000F0013F0010F18BFFB1A43F0010318473B
:10012000102B0000302B0000103A24BF78C878C193
:10013000FAD8520724BF30C830C144BF04680C60ED
:10014000704700000023002400250026103A28BF35
:1001500078C1FBD8520728BF30C148BF0B60704739
:100160001FB51FBD10B510BD00F058F81146FFF7C0
:10017000F7FF02F037FB00F076F803B4FFF7F2FF69
:1001800003BC00F07DF8000009488047094800479B
:10019000FEE7FEE7FEE7FEE7FEE7FEE7FEE7FEE737
:1001A000FEE7FEE704480549054A064B7047000094
:1001B00031210008ED000008380200203808002036
:1001C00038040020380400204FF0000200B5134628
:1001D00094469646203922BFA0E80C50A0E80C5067
:1001E000B1F12001BFF4F7AF090728BFA0E80C5018
:1001F00048BF0CC05DF804EB890028BF40F8042B11
:1002000008BF704748BF20F8022B11F0804F18BF7D
:1002100000F8012B7047704770477047754600F033
:100220002BF8AE4605006946534620F00700854688
:1002300018B020B5FFF7B6FFBDE820404FF000062C
:100240004FF000074FF000084FF0000B21F00701BE
:10025000AC46ACE8C009ACE8C009ACE8C009ACE801
:10026000C0098D46704710B50446AFF300802046A4
:10027000BDE81040FFF781BF00487047D40100205F
:1002800001491820ABBEFEE726000200704700BF00
:10029000FEE7704772B600BFFEE70146002291F804
:1002A0002100022808D00420886300BF002081F8C4
:1002B000200000BF012070470868006820F00E0091
:1002C0000B6818600868006820F001000B6818606F
:1002D00091F8403001209840CB6B5860012081F8A4
:1002E000210000BF002081F8200000BF1046E2E797
:1002F00070B50446002594F82100022803D004209C
:10030000A063012548E02068006820F00E00216805
:1003100008602068006820F00100216808601F491B
:100320002068884201D1012026E01C491431206850
:10033000884201D110201FE01849283120688842E6
:1003400001D1801518E015493C312068884201D15F
:10035000801411E0114950312068884202D14FF4D5
:10036000803009E00D4964312068884202D14FF4A1
:10037000801001E04FF08070084908394860012082
:1003800084F8210000BF002084F8200000BF606BCB
:1003900010B12046616B8847284670BD08000240B6
:1003A0002DE9F8470346002294466EE14FF001081C
:1003B00008FA02F4D1F8008008EA0400A0427DD1D6
:1003C000DFF8DCA2D1F80480A8EB0A09D0453AD0C6
:1003D00014DCB8F1030F50D009DCB8F1000F31D0B4
:1003E000B8F1010F1CD0B8F1020F49D120E0B8F1EB
:1003F000110F18D0B8F1120F42D11EE0B9F5881FC5
:1004000025D006DCB9F5803F20D0B9F5801F37D163
:100410001AE0B9F5001F18D0B9F5041F30D117E064
:10042000D1F80CC02DE0D1F80C8008F1040C28E0C4
:10043000D1F80C8008F1080C23E0D1F80C8008F109
:100440000C0C1EE000BF00BF00BF00BF00BF00BF1C
:10045000D1F80880B8F1000F02D14FF0040C0BE086
:10046000D1F80880B8F1010F03D14FF0080C1C61DE
:1004700002E04FF0080C5C6103E04FF0000C00E07C
:1004800000BF00BFFF2801D8984601E003F104082F
:100490004646FF2802D84FEA820803E0A2F1080886
:1004A0004FEA88084746D6F800804FF00F0909FA4E
:1004B00007F928EA09080CFA07F900E088E048EA99
:1004C0000908C6F80080D1F8048008F08058B8F117
:1004D000805F7DD100BFDFF8CC81D8F8188048F06C
:1004E0000108DFF8C091C9F81880C846D8F818800C
:1004F00008F00108CDF8008000BF00BF4FEAB9380E
:100500004FEA920958F829504FEA82784FEA187951
:100510004FF00F0808FA09F825EA0805DFF8888186
:10052000434502D14FF0000816E0DFF880814345D3
:1005300002D14FF001080FE0DFF87481434502D18A
:100540004FF0020808E0DFF86C81434502D14FF01C
:10055000030801E04FF004084FEA82794FEA197965
:1005600008FA09F848EA0505DFF84C814FEA9209D4
:1005700048F82950D1F8048008F48018B8F5801F95
:100580000AD1DFF83881D8F8008048EA0008DFF89F
:100590002C91C9F8008009E0DFF82081D8F80080AC
:1005A00028EA0008DFF81491C9F80080D1F8048027
:1005B00008F40018B8F5001F10D1DFF8008108F129
:1005C0000408D8F8008048EA0008DFF8F09000E05E
:1005D0005AE009F10409C9F800800DE0DFF8DC8079
:1005E00008F10408D8F8008028EA0008DFF8CC9069
:1005F00009F10409C9F80080D1F8048008F4003832
:10060000B8F5003F0ED1DFF8B480A8F10408D8F89F
:10061000008048EA0008DFF8A490A9F10409C9F8AD
:1006200000800DE0DFF89480A8F10408D8F800807D
:1006300028EA0008DFF88490A9F10409C9F80080CD
:10064000D1F8048008F48038B8F5803F0ED1DFF887
:100650006C80A8F10808D8F8008048EA0008DFF8A4
:100660005C90A9F10809C9F800800DE0DFF84C8022
:10067000A8F10808D8F8008028EA0008DFF83C90C4
:10068000A9F10809C9F80080521CD1F8008028FAA5
:1006900002F8B8F1000F7FF489AEBDE8F8870000DA
:1006A000000011100010024000080140000C014041
:1006B00000100140001401400800014008040140FE
:1006C0000AB1016101E00B04036170470148006851
:1006D000704700008400002003480068034909783F
:1006E0000844014908607047840000208C00002005
:1006F00010B50848006840F0100006490860032063
:1007000000F0A8F80F2000F007F800F02BF8002008
:1007100010BD00000020024070B504460E4800786D
:100720004FF47A71B1FBF0F00C490968B1FBF0F5B8
:10073000284600F0F9FB08B1012070BD102C07D24B
:1007400000222146501E00F047F80548046001E0F1
:100750000120F2E70020F0E78C000020900000204C
:100760008800002008B500BF1148806940F00100F2
:100770000F4988610846806900F00100009000BFC1
:1007800000BF00BF0846C06940F08050C8610846FD
:10079000C06900F08050009000BF00BF00BF054955
:1007A000486820F0E06040F00070486000BF08BD7D
:1007B000001002400000014001460846002809DB05
:1007C00000F01F0301229A4043099B0003F1E0233C
:1007D000C3F8002100BF70472DE9F05F80460D4649
:1007E0001646002701F0E2FF074639462A463346FF
:1007F00001F00700C0F1070ABAF1040F02D94FF067
:10080000040A01E0C0F1070AD14600F1040ABAF176
:10081000070F02D24FF0000A01E0A0F1030AD4460C
:100820004FF0010A0AFA09FAAAF1010A0AEA020AD1
:100830000AFA0CFA4FF0010B0BFA0CFBABF1010BAF
:100840000BEA030B4AEA0B042146404601F0B6FFCF
:10085000BDE8F09F00BF00F00702064B19684FF695
:10086000FF031940044B0B4343EA0221014B19607B
:1008700000BF70470CED00E00000FA0570B50446BB
:100880000D460CB9012070BD5A48006800F0070001
:10089000A8420ED25748006820F007002843554967
:1008A00008600846006800F00700A84201D0012057
:1008B000E9E7207800F0020002281DD1207800F03E
:1008C0000400042805D14C48406840F4E0604A49DF
:1008D0004860207800F00800082805D146484068A4
:1008E00040F46050444948604348406820F0F000BC
:1008F000A168084340494860207800F0010078B3BF
:100900006068012806D13C48006800F4003090B9C6
:100910000120B8E76068022806D13748006800F077
:10092000007040B90120AEE73348006800F00200D3
:1009300008B90120A7E73048406820F0030061684B
:1009400008432D494860FFF7C1FE064609E0FFF75E
:10095000BDFE801B41F28831884202D9032092E714
:1009600007E02548406800F00C006168B0EB810F9B
:10097000EDD12048006800F00700A8420ED91D48BC
:10098000006820F0070028431A49086008460068FC
:1009900000F00700A84201D0012074E7207800F0A1
:1009A0000400042807D11448406820F4E060E1689E
:1009B000084311494860207800F00800082808D151
:1009C0000D48406820F46050216940EAC1000A499E
:1009D000486000F03FF808494968C1F30311074A2D
:1009E000515CC8400649086006480068FFF794FE5D
:1009F000002048E70020024000100240182C0008A8
:100A00009000002088000020014800687047000026
:100A10009000002000B5FFF7F7FF04494968C1F3D3
:100A20000221034A515CC84000BD00000010024092
:100A3000282C000800B5FFF7E7FF04494968C1F317
:100A4000C221034A515CC84000BD000000100240B2
:100A5000282C000870B5002100220024002300206B
:100A6000134D696801F00C05F5B1042D02D0082D75
:100A700019D101E00F4819E00F4DC1F38346AB5D7A
:100A800001F4803555B10A4D6D68C5F340450B4EF4
:100A9000725D084D5D43B5FBF2F402E0084D03FBC7
:100AA00005F4204602E000BF024800BF00BF70BD51
:100AB0000010024000127A00062C0008162C0008D4
:100AC00000093D00F8B504460CB90120F8BD2078B6
:100AD00000F00100002878D0F848406800F00C00D1
:100AE00004280CD0F548406800F00C00082811D10B
:100AF000F248406800F48030B0F5803F0AD1EF48FA
:100B0000006800F4003000285FD0606800285CD1E5
:100B10000120DBE700BF6068B0F5803F06D1E74801
:100B2000006840F48030E549086028E0606858B902
:100B3000E248006820F48030E04908600846006818
:100B400020F4802008601AE06068B0F5A02F0BD177
:100B5000DA48006840F48020D849086008460068F8
:100B600040F4803008600AE0D448006820F4803007
:100B7000D24908600846006820F48020086000BF61
:100B8000606888B1FFF7A2FD054606E0FFF79EFD0D
:100B9000401B642801D9032098E7C848006800F486
:100BA00000300028F2D010E0FFF790FD054606E087
:100BB000FFF78CFD401B642801D9032086E7BF485E
:100BC000006800F400300028F2D1207800F0020024
:100BD000022857D1B948406800F00C0050B1B7481E
:100BE000406800F00C00082818D1B448406800F4B0
:100BF000803098B9B148006800F0020020B1206947
:100C0000012801D0012061E7AC48006820F0F8001D
:100C1000616940EAC100A949086033E02069E8B190
:100C20000120A7490860FFF751FD054606E0FFF7E0
:100C30004DFD401B022801D9032047E79F4800686B
:100C400000F002000028F2D09C48006820F0F80074
:100C5000616940EAC1009949086013E000209849A1
:100C60000860FFF733FD054606E0FFF72FFD401B48
:100C7000022801D9032029E79048006800F002000B
:100C80000028F2D1207800F0080008282DD1A069B2
:100C9000B8B101208B490860FFF718FD054606E052
:100CA000FFF714FD401B022801D903200EE78348FB
:100CB000406A00F002000028F2D0012001F0ECF9B7
:100CC00013E000207F490860FFF700FD054606E0BD
:100CD000FFF7FCFC401B022801D90320F6E6774809
:100CE000406A00F002000028F2D1207800F00400F1
:100CF000042873D100277148C06900F0805070B992
:100D000000BF6E48C06940F080506C49C861084619
:100D1000C06900F08050009000BF00BF01276A4802
:100D2000006800F48070B0B96748006840F48070D3
:100D300065490860FFF7CAFC054606E0FFF7C6FCF8
:100D4000401B642801D90320C0E65F48006800F416
:100D500080700028F2D000BFE068012806D1574813
:100D6000006A40F001005549086227E0E06858B980
:100D70005248006A20F00100504908620846006AA3
:100D800020F00400086219E0E06805280BD14B4808
:100D9000006A40F00400494908620846006A40F0D1
:100DA000010008620AE04548006A20F0010043495A
:100DB00008620846006A20F00400086200BFE0688C
:100DC000A0B1FFF783FC054609E0FFF77FFC401B5D
:100DD00041F28831884202D9032077E622E0374881
:100DE000006A00F002000028EFD012E0FFF76EFC6E
:100DF000054608E0FFF76AFC401B41F28831884253
:100E000001D9032062E62D48006A00F002000028A4
:100E1000F0D1012F05D12948C06920F08050274921
:100E2000C86100BFE069C8B32448406800F00C0006
:100E3000082860D0E069022848D1002020490866CF
:100E4000FFF744FC054606E0FFF740FC401B022884
:100E500001D903203AE61948006800F00070002824
:100E6000F2D1206AB0F5803F07D11448406820F4E1
:100E70000030A168084311494860D4E908010843DB
:100E80000E49496821F4741108430C494860012057
:100E90000B490866FFF71AFC054607E03DE0FFF73F
:100EA00015FC401B022801D903200FE60348006807
:100EB00000F000700028F2D02FE000000010024087
:100EC0000000424280044242007000400020144969
:100ED0000866FFF7FBFB054606E0FFF7F7FB401B44
:100EE000022801D90320F1E50E48006800F00070E7
:100EF0000028F2D111E0E069012800D1E6E50948B7
:100F0000466806F48031206A814204D106F47011EB
:100F1000606A814201D00120D8E50020D6E50000BA
:100F2000000042420010024070B504462546681E8B
:100F3000B0F1807F01D301200FE0681E4FF0E02167
:100F400048610F214FF0FF3001F038FC00204FF0D6
:100F5000E021886107200861002070BD704770475C
:100F600030B502460B4600BF92F83C00012801D183
:100F7000022030BD012082F83C0000BF022082F830
:100F80003D00106844681068816824F07004186897
:100F9000044310684460104D1068A8420BD01068DC
:100FA000B0F1804F07D00D4D1068A84203D00C4D12
:100FB0001068A84205D121F08001586801431068EB
:100FC0008160012082F83D0000BF002082F83C00D3
:100FD00000BF00BFCDE70000002C0140000400402E
:100FE0000008004010B504460CB9012010BD94F86B
:100FF0003D0028B9002084F83C00204600F026F887
:10100000022084F83D00211D206801F09BF801209A
:1010100084F8460000BF84F83E0001213F200155BE
:10102000402001554120015500BF00BF012084F838
:10103000420043200155442001554520015500BF81
:10104000012084F83D000020D0E7000038B50446B8
:1010500016492068884216D100BF1548C06940F083
:1010600002001349C8610846C06900F00200009000
:1010700000BF00BF002211461D20FFF7ADFB1D2061
:10108000FFF79AFB11E00B49206888420DD100BFA1
:101090000748C06940F004000549C8610846C069B6
:1010A00000F00400009000BF00BF38BD0004004005
:1010B0000010024000080040014691F83D00012860
:1010C00001D001207047022081F83D00124B0868D2
:1010D00098420BD00868B0F1804F07D00F4B0868DA
:1010E000984203D00E4B086898420CD1086880687B
:1010F00000F00702062A0CD00868006840F00100E2
:101100000B68186005E00868006840F001000B6893
:1011100018600020D6E70000002C014000040040C9
:1011200000080040014691F83D00012801D001204F
:101130007047022081F83D000868C06840F0010057
:101140000B68D860124B086898420BD00868B0F161
:10115000804F07D00F4B0868984203D00E4B0868A9
:1011600098420CD10868806800F00702062A0CD06B
:101170000868006840F001000B68186005E0086826
:10118000006840F001000B6818600020D0E7000004
:10119000002C014000040040000800402DE9F0410F
:1011A00004460D46002700BF94F83C00012802D1F8
:1011B0000220BDE8F081012084F83C0000BF02203D
:1011C00084F83D002068866826F0770626F47F467E
:1011D000206886602868502833D00CDC202850D046
:1011E00004DC00284BD0102851D149E0302849D0E8
:1011F00040284CD139E060282DD0702807D0B0F5B8
:10120000805F03D0B0F5005F41D10DE041E0D5E94A
:1012100002136A68206800F0E8FF2068866846F0DC
:1012200077062068866034E0D5E902136A68206892
:1012300000F0DBFF2068806840F48040216888600F
:1012400027E0EA686968206801F0A0F8502120686A
:1012500000F0D6FF1DE0EA686968206801F0A9F88F
:101260006021206800F0CCFF13E0EA68696820681C
:1012700001F08CF84021206800F0C2FF09E000BFB7
:1012800000BF00BF2968206800F0BAFF01E0012715
:1012900000BF00BF012084F83D0000BF002084F89B
:1012A0003C0000BF384684E7704770B504462068AC
:1012B000C5682068066906F00200022819D105F009
:1012C0000200022815D1401F216808610120207703
:1012D0002068806900F0030018B12046FFF7E4FFA2
:1012E00005E0204600F0C4F8204600F078F9002020
:1012F000207706F00400042819D105F00400042822
:1013000015D1C043216808610220207720688069D8
:1013100000F4407018B12046FFF7C6FF05E02046F4
:1013200000F0A6F8204600F05AF90020207706F0D9
:101330000800082819D105F00800082815D1C04375
:1013400021680861042020772068C06900F003004C
:1013500018B12046FFF7A8FF05E0204600F088F806
:10136000204600F03CF90020207706F010001028FD
:1013700019D105F01000102815D1C043216808616B
:10138000082020772068C06900F4407018B120461A
:10139000FFF78AFF05E0204600F06AF8204600F0DB
:1013A0001EF90020207706F0010048B105F0010089
:1013B00030B16FF0010021680861204600F07AF931
:1013C00006F08000802809D105F08000802805D132
:1013D000C043216808612046FFF7C0FD06F04000C9
:1013E000402809D105F04000402805D1C0432168BC
:1013F0000861204600F07CF906F02000202809D181
:1014000005F02000202805D1C0432168086120464E
:10141000FFF7A5FD70BD000010B586B004460020A2
:1014200002900390049005900E492068884217D1DD
:1014300000BF0D48806940F008000B4988610846EC
:10144000806900F00800019000BF00BF4FF4707089
:10145000029002200390059002A90448FEF7A0FF25
:1014600006B010BD0008004000100240000C014012
:1014700070472DE9F04104460D461646002700BF8F
:1014800094F83C00012802D10220BDE8F08101203F
:1014900084F83C0000BF36B1042E1BD0082E31D09A
:1014A0000C2E5ED145E02946206800F0B3FE20688E
:1014B000806940F00800216888612068806920F018
:1014C00004002168886120688069296908432168CF
:1014D000886148E02946206800F0CCFE20688069D9
:1014E00040F40060216888612068806920F4806091
:1014F0002168886120688069296940EA01202168A3
:10150000886130E02946206800F0E8FE2068C06964
:1015100040F008002168C8612068C06920F004001C
:101520002168C8612068C069296908432168C861C9
:1015300019E02946206800F005FF2068C06940F4E2
:1015400000602168C8612068C06920F4806021685B
:10155000C8612068C069296940EA01202168C86122
:1015600001E0012700BF00BF00BF002084F83C005D
:1015700000BF384689E710B504460CB9012010BDFC
:1015800094F83D0028B9002084F83C00204600F083
:1015900025F8022084F83D00211D206800F0D2FDCE
:1015A000012084F8460000BF84F83E0001213F205E
:1015B0000155402001554120015500BF00BF0120C9
:1015C00084F842004320015544200155452001552F
:1015D00000BF012084F83D000020D0E7704770472D
:1015E00070B504460D4615B994F83E000BE0042D85
:1015F00002D13F20005D06E0082D02D14020005DB1
:1016000001E04120005D012801D0012070BD1DB91D
:10161000022084F83E000EE0042D03D102213F2079
:10162000015508E0082D03D102214020015502E0B8
:1016300002214120015501222946206800F0C4FD05
:1016400019492068884201D1012000E0002028B11A
:101650002068406C40F400402168486412492068CA
:1016600088420BD02068B0F1804F07D00F49206826
:10167000884203D00E49206888420CD120688068D7
:1016800000F00706062E0CD02068006840F001002C
:101690002168086005E02068006840F001002168CA
:1016A00008600020B2E70000002C01400004004068
:1016B0000008004070B505460A492868884210D1E4
:1016C00000240CE0084850F82400084941F82400A0
:1016D0000020054941F8240000F002FC641C042CA1
:1016E000F0DB70BD0004004094000020A400002046
:1016F00070477047704700002DE9F84F0446206896
:1017000005682068C668206847694FF00009CA4626
:1017100005F00F09B9F1000F0AD105F0200038B12A
:1017200006F0200020B1204600F0A7FEBDE8F88FAB
:10173000B9F1000F7BD007F0010018B906F49070E2
:10174000002874D005F0010030B106F4807018B1A3
:10175000606C40F00100606405F0040030B107F0F7
:10176000010018B1606C40F00200606405F00200F6
:1017700030B107F0010018B1606C40F00400606403
:1017800005F0080048B106F0200010B907F001008C
:1017900018B1606C40F008006064606C002845D0AF
:1017A00005F0200028B106F0200010B1204600F01E
:1017B00064FE20684069C0F3801A606C00F0080085
:1017C00010B9BAF1000F2CD0204600F010FE2068AE
:1017D000406900F0400000B300BF00BF2168143131
:1017E00051E8001F21F040002168143141E8000257
:1017F000002AF3D100BFE06B50B17748E16B48633A
:10180000E06BFEF775FD88B1E06B416B88470DE03A
:101810002046FFF76FFF09E009E02046FFF76AFF67
:1018200004E02046FFF766FF002060647EE7206B3F
:10183000012877D105F01000002873D006F01000C1
:101840000028FAD000BF00200090206800680090B7
:1018500020684068009000BF00BF2068406900F029
:10186000400000285FD0E06B006840681FFA80F8F5
:10187000B8F1000F55D0A08D404552DDA4F82E8060
:10188000E06B8069202843D000BF00BF21680C3185
:1018900051E8001F21F4807021680C3141E80002FA
:1018A000002AF3D100BF00BF00BF2168143151E806
:1018B000001F21F001002168143141E80002002AD4
:1018C000F3D100BF00BF00BF2168143151E8001FF1
:1018D00021F040002168143141E80002002AF3D1D0
:1018E00000BF202084F842000020206300BF00BF1A
:1018F00021680C3151E8001F21F0100021680C31E3
:1019000041E80002002AF3D100BFE06BFEF7C5FCFE
:1019100002206063A08DE28D801A81B22046FFF71D
:10192000E8FE03E742E0A08DE18D401A1FFA80F83F
:10193000E08DD0B3B8F1000F37D000BF00BF2168F1
:101940000C3151E8001F21F4907021680C3141E8FE
:101950000002002AF3D100BF00BF00BF216814318C
:1019600051E8001F21F001002168143141E8000214
:10197000002AF3D100BF202084F842000020206319
:1019800000BF00BF21680C3151E8001F21F010009A
:1019900021680C3141E80002002AF3D100BF022087
:1019A000606341462046FFF7A4FEBFE605F08000D5
:1019B00030B106F0800018B1204600F07BFEB5E69D
:1019C00005F0400030B106F0400018B1204600F0AC
:1019D00044FDABE600BFA9E6DB23000810B50446D2
:1019E0000CB9012010BDA06900B100E000BF94F85F
:1019F000410028B9002084F84000204600F02AF871
:101A0000242084F841002068C06820F40050216838
:101A1000C860204600F0B0FD2068006920F49040C6
:101A2000216808612068406920F02A002168486127
:101A30002068C06840F400502168C86000206064DD
:101A4000202084F8410084F842000020606300BF39
:101A5000C8E7000010B586B004460020029003904D
:101A6000049005903C492068884237D100BF3B482C
:101A7000806940F48040394988610846806900F4F3
:101A80008040019000BF00BF00BF0846806940F061
:101A9000040088610846806900F00400019000BFDE
:101AA00000BF48150290022003900320059002A970
:101AB0002B48FEF775FC4FF48060029000200390E5
:101AC000049002A92648FEF76BFC0022114625204F
:101AD000FEF782FE2520FEF76FFE3AE021492068DE
:101AE000884236D100BF1D48C06940F480201B49A0
:101AF000C8610846C06900F48020019000BF00BFA3
:101B000000BF0846806940F0080088610846806987
:101B100000F00800019000BF00BF081502900220ED
:101B200003900320059002A90F48FEF739FC4FF4FB
:101B30000060029000200390049002A90A48FEF77A
:101B40002FFC002211462720FEF746FE2720FEF735
:101B500033FE06B010BD0000003801400010024006
:101B60000008014000480040000C014070B50446E8
:101B70000D46164694F8420020280BD105B10EB947
:101B8000012070BD0020206332462946204600F027
:101B900071FDF6E70220F4E738B504461F492068D6
:101BA000884220D11E480078A52817D11C4800790A
:101BB0005A2813D11A4840781A4908701848807872
:101BC00048701748C078887008460188ADF8001042
:101BD00080788DF80200009800F0ACFD05221049D5
:101BE0001148FFF7C3FF1149206888420FD1104800
:101BF0000078A5280BD10E48C0780D2807D10C48D5
:101C000040780C4908700A4880780B490870042213
:101C100007490548FFF7AAFF38BD0000004800400B
:101C200004000020280000208C0100200038014022
:101C3000090000200D0000200E000020704700BFAA
:101C4000FEE7000000B585B00020019002900390EF
:101C5000049000BF3148806940F020002F4988611E
:101C60000846806900F02000009000BF00BF00BF60
:101C70000846806940F0040088610846806900F0E9
:101C80000400009000BF00BF00BF0846806940F01C
:101C9000080088610846806900F00800009000BFD5
:101CA00000BF00224FF20B011D48FEF709FD002284
:101CB0004FF410611B48FEF703FDFF2001901A4806
:101CC00002900020039001A91648FEF769FB4FF22D
:101CD0000B0001900120029000200390022004904C
:101CE00001A90F48FEF75CFB4FF410600190012042
:101CF0000290002003900220049001A90948FEF7F9
:101D00004FFB4FF48050019000200290039001A9F6
:101D10000448FEF745FB05B000BD0000001002407E
:101D2000000C0140000801400000111000B587B010
:101D300000200390049005900690019002901548B1
:101D40001549086040F2CF204860002112488160A8
:101D500040F2E731C160002101618161FFF742F982
:101D600008B1FEF797FA4FF48050039003A90A4890
:101D7000FFF714FA08B1FEF78DFA002001900290E7
:101D800001A90548FFF7ECF808B1FEF783FA07B0A0
:101D900000BD000000040040B400002000B58DB07C
:101DA000002009900A900B900C90079008901C213D
:101DB0006846FEF709FA2B482B490860472048601F
:101DC0000021294881606321C16000210161816196
:101DD000FFF708F908B1FEF75DFA4FF4805009905B
:101DE00009A92148FFF7DAF908B1FEF753FA1E48AE
:101DF000FFF7C1FB08B1FEF74DFA002007900890ED
:101E000007A91948FFF7ACF808B1FEF743FA6020BC
:101E10000090002001900290049000226946124830
:101E2000FFF727FB08B1FEF735FA042269460E4892
:101E3000FFF71FFB08B1FEF72DFA082269460A4892
:101E4000FFF717FB08B1FEF725FA0C226946064892
:101E5000FFF70FFB08B1FEF71DFA0348FFF7DCFAA6
:101E60000DB000BD00080040FC00002010B50B487C
:101E70000B4908604FF4E130486000210848816058
:101E8000C16001610C21416100218161C161FFF7E5
:101E9000A5FD08B1FEF7FEF910BD000000380140B5
:101EA0004401002010B50B480B4908604FF4E130A5
:101EB0004860002108488160C16001610C214161D6
:101EC00000218161C161FFF789FD08B1FEF7E2F9E8
:101ED00010BD0000004800408C01002000BFFEE75C
:101EE0003EB5002411E0284B33F824301AB2274BBA
:101EF00033F9141004EB8403254D05EB830000F047
:101F00009AF8244921F81400641C042CEBDB4FF4EC
:101F1000805021490122CDE9002102901D48B0F9ED
:101F200000200B4600211D4800F03CF84FF4005003
:101F300019490222CDE9002102901648B0F9022089
:101F40000B460421154800F02DF84FF4804012494B
:101F50008211CDE9002102900E48B0F90420104B07
:101F600008210E4800F01EF84FF400400A490822EC
:101F7000CDE9002102900748B0F906200B460C215C
:101F8000064800F00FF83EBDA40000202C00002001
:101F90003400002010000020000C0140FC00002054
:101FA000000801402DE9F04705460E4614461F463D
:101FB000DDE9099ADDF82080002C1ADD0122414676
:101FC0003846FEF77DFB002251464846FEF778FB77
:101FD00016B9286844632AE0042E02D12868846375
:101FE00025E0082E02D12868C46320E02868046434
:101FF0001DE0002241463846FEF762FB01225146B1
:102000004846FEF75DFB1EB96042296848630EE052
:10201000042E03D160422968886308E0082E03D1AA
:1020200060422968C86302E0604229680864BDE82C
:10203000F08700BFFEE72DE9FC5F04460E46174619
:10204000F01B00F087FC05462946206900F004FCDF
:1020500020612846E16800F061FD0190E560A0681C
:10206000019900F08FFC82462169606800F08AFCCB
:1020700083462946206800F085FC5946009000F010
:10208000EBFB8146514600F0E7FB804600F046FC42
:1020900000B2BDE8FC9F704708B508490968C90847
:1020A0004FF47A72B1FBF2F14143009100BF00BFDF
:1020B00000994A1E00920029F9D108BD9000002025
:1020C000704710B5FEF708FB10BD00B58FB0282192
:1020D00005A8FEF779F814216846FEF775F8012087
:1020E000059000040690002007900120099002202E
:1020F0000C90C1030D914FF4E0110E9105A8FEF76D
:10210000E1FC08B1FEF7C6F80F2000900220019014
:10211000002002904FF48060039000200490022180
:102120006846FEF7ABFB08B1FEF7B4F80FB000BD90
:102130007047000010B50248FFF7B7F810BD000067
:10214000B400002010B502681C4B984208D0B0F1D2
:10215000804F05D01A4B984202D01A4B984203D1B7
:1021600022F070024B681A43144B984208D0B0F129
:10217000804F05D0124B984202D0124B984203D1A7
:1021800022F44072CB681A4322F080034C6943EA80
:10219000040202608B68C3620B688362074B98423B
:1021A00001D10B69036301234361036903F0010358
:1021B0001BB1036923F00103036110BD002C014032
:1021C000000400400008004030B501F01F05012464
:1021D00004FA05F3046A9C430462046A01F01F05D3
:1021E00002FA05F52C43046230BD30B50C46816817
:1021F00021F47F4142EA032525432943816030BD14
:102200000A46816821F0700142F00703194381609A
:102210007047000030B5026A056A25F001050562C5
:102220004368846924F0700424F003040D682C438F
:1022300022F002028D682A430D4DA84206D100BF4C
:1022400022F00802CD682A4322F00402084DA84279
:1022500007D123F4807323F400734D692B438D69F8
:102260002B43436084614D684563026230BD0000CA
:10227000002C014030B5026A056A25F010050562A0
:102280004368846924F4E04424F440740D6844EA0B
:10229000052422F020028D6842EA05120E4DA84264
:1022A00007D100BF22F08002CD6842EA051222F079
:1022B0004002094DA84209D123F4806323F400634E
:1022C0004D6943EA85038D6943EA85034360846170
:1022D0004D688563026230BD002C014030B5026A52
:1022E000056A25F4807505624368C46924F07004AA
:1022F00024F003040D682C4322F400728D6842EA36
:1023000005220F4DA84207D100BF22F40062CD681C
:1023100042EA052222F48062094DA84209D123F441
:10232000805323F400534D6943EA05138D6943EA52
:1023300005134360C4614D68C563026230BD00008F
:10234000002C014030B5036A056A25F4805505620A
:102350004468C26922F4E04222F440720D6842EA05
:10236000052223F400538D6843EA0533064DA84245
:1023700004D124F480444D6944EA85144460C26168
:102380004D680564036230BD002C014030B50B463A
:102390001446026A056A25F001050562816921F08B
:1023A000F00141EA041122F00A021A43816102623B
:1023B00030BD30B50B461446026A056A25F010059B
:1023C0000562816921F4704141EA043122F0A002E2
:1023D00042EA03128161026230BD70B505466C6A43
:1023E0000020E085E0842046FFF784F970BD00BF3F
:1023F00000BF02680C3252E8002F22F4907102688C
:102400000C3242E80013002BF3D100BF00BF00BF25
:102410000268143252E8002F22F0010102681432DF
:1024200042E80013002BF3D100BF016B01290ED14C
:1024300000BF00BF02680C3252E8002F22F01001EA
:1024400002680C3242E80013002BF3D100BF2021B8
:1024500080F8421000210163704710B504462068DF
:10246000C06820F040002168C860202084F8410046
:102470002046FFF7E3FB002010BDF8B5044694F8B2
:102480004200222875D1A068B0F5805F0CD1206988
:1024900050B90025A66A20684068C0F30800308063
:1024A000A06A801CA06215E0A56A0026A068B0F5AD
:1024B000805F03D0A06828B9206918B920684068F7
:1024C000287004E02068406800F07F002870A06A4F
:1024D000401CA062E08D401E80B2E085002846D1FD
:1024E0002068C06820F020002168C8602068C068AB
:1024F00020F480702168C8602068406920F00100E5
:1025000021684861202084F8420000206063206B2D
:10251000012826D10020206300BF00BF21680C31B4
:1025200051E8001F21F0100021680C3141E8000241
:10253000002AF3D100BF2068006800F010001028C6
:102540000AD100BF00200090206800680090206839
:102550004068009000BF00BFA18D2046FFF7C9F87A
:1025600002E02046FFF718FB0020F8BD01E0002044
:10257000FBE70220F9E7000070B50446216809690D
:1025800021F44051E2681143226811612269A16877
:102590001143626941EA02052168C96841F20C628F
:1025A000914329432268D1602168496921F440712F
:1025B000A2691143226851612D4A2168914202D1DA
:1025C000FEF738FA01E0FEF725FA00EBC00101EB57
:1025D000001162689200B1FBF2F100EBC00202EB65
:1025E000001263689B00B2FBF3F26423B2FBF3F2C8
:1025F00002EBC20303EB0212A1EB8201322202EBD7
:1026000001116422B1FBF2F101F0F00100EBC00214
:1026100002EB001263689B00B2FBF3F26423B2FB8F
:10262000F3F201EB021200EBC00101EB0011636851
:102630009B00B1FBF3F100EBC00303EB00136668F2
:10264000B600B3FBF6F36426B3FBF6F303EBC30665
:1026500006EB0313A1EB8301322303EB0111642387
:10266000B1FBF3F101F00F0111442268916070BDDC
:102670000038014010B5034699629A85DA8500203A
:102680005864222083F84200186928B11868C0688D
:1026900040F480701C68E0601868406940F00100F8
:1026A0001C6860611868C06840F020001C68E06029
:1026B000002010BD014691F84100212828D18868EA
:1026C000B0F5805F0BD1086948B90A6A1088C0F379
:1026D00008000B685860086A801C086205E00B6AF5
:1026E000581C086218780B685860C88C401E80B26D
:1026F000C88458B90868C06820F080000B68D860AA
:102700000868C06840F040000B68D860002070473F
:102710000220FCE710B50248FEF7EEFF10BD0000F6
:102720004401002010B50248FEF7E6FF10BD00008E
:102730008C01002000200CE0174949786439174AC1
:1027400022F81010144989786439154A22F81010BB
:10275000401C0428F0DB1248008810490988401A00
:1027600000B2104908800E4840880C494988084446
:1027700000B20C4948800A48808808498988401A74
:1027800000B2084988800648C0880449C9880844BE
:1027900000B20449C88070472800002018000020BB
:1027A000200000202C00002000BFFEE70248006847
:1027B000C0F30220704700000CED00E010B50028C7
:1027C00004DB0A07130E054A135406E00A07140E29
:1027D000034A00F00F031B1FD45410BD00E400E0B7
:1027E00018ED00E0FDF784FFFFF76FFCFFF72AFA12
:1027F000FFF79CFAFFF7D2FAFFF738FBFFF752FB1F
:102800001048FEF78FFC1048FEF756FC00210E48DA
:10281000FEF7E6FE04210C48FEF7E2FE08210A4816
:10282000FEF7DEFE0C210848FEF7DAFE0522074916
:102830000748FFF79BF9042206490548FFF796F978
:1028400000BFFEE7B4000020FC00002004000020D0
:102850008C0100200900002090EA010F48BF81F0A0
:10286000004100F16281421A3CBF801A89184FEA88
:10287000D0524FF07F4C1CEA410FA2EBD15318BF4E
:102880009CEA026F00F03B804FF0004C4CEA0020C5
:102890004CEA012121FA03FC10EB0C0C1ED202F1D0
:1028A000FF325FEA1C2040EBC25038BF70471CF07B
:1028B0007F0F4FEA400C18BFBCF17F4F38BF704705
:1028C000C3F12003994008BF20F00100BCF17F4F05
:1028D00038BF7047A0F1C04000F01BB94FEA3C0080
:1028E000000A40EBC25028BF1CF0FF0F4FEA400C1B
:1028F000E6D018BFBCF17F4F38BF7047EAE79CEACB
:10290000026F05D010EA5C0F08BF00F0004070476E
:1029100010B500F0B8F800BF64FBBE3E41000B0EDE
:10292000D3F19E0208D950F400034FEA032323FA9F
:1029300002F048BF4042704710B500F0A4F800BF55
:1029400049922480002070476FF0004282EA200004
:102950007047000010F0004148BF4042B0FA80F3D9
:1029600010FA03F2C3F19D030BD051EAC35101EBFE
:102970001220530638BF704700F1010008BF20F055
:10298000010070474FF47F0C1CEAD0121EBF1CEAF6
:10299000D11392EA0C0F93EA0C0F00F0478090EAF3
:1029A000010F48BF42F480724FF0004C4CEA002007
:1029B0004CEA012102EB0302A0FB0113A2F5000285
:1029C000002918BF43F001035B0028BF4FEA33031F
:1029D00042EB22425FEA132C4CEBC2502EBFBCEB01
:1029E000436FB2F57C0F70474FEA036CBCF1004FA8
:1029F00008BF20F00100B2F57C0F38BF70470BD53F
:102A000082F0FF0212F5803FC8BF704700F1C0405E
:102A1000D8BF00F00040704700F5000C5FEA4C0C96
:102A200048BF7047B0F1C04000F073B890EA010FA2
:102A30000CEAD11348BF42F48072624538BF634547
:102A400004D280EA010000F00040704710B500F0A9
:102A50001AF800BF8900013E00F007B800F009B87D
:102A60005FEA410C5FEA1C6C08D080EA010000F0CC
:102A700050B85FEA400C5FEA1C6CF6D14FF00040A2
:102A8000A0F5800070470EF1020E2EF0030E5EF8E6
:102A9000044B244204D44FEA4102B2F17F4F11D8D3
:102AA0004FEA4003B3F17F4F0CD80ED14FEAD07CF0
:102AB000B2F17F4F0CEB4C0C0CF1020C08BF4CEB4D
:102AC000D17C04E04FF0080C01E04FEAD17C0CEB24
:102AD0004C0324FA03F404F00704B4F1040C06D206
:102AE0000EEB840CBDE810404CF0010C6047DFE8B1
:102AF0000CF0070802024FF00040A0F5800010BD66
:102B00000846420018BFD2F1807288BF00F0004032
:102B100010BDFF2141EAD050C005704790EA010F77
:102B200048BF81F000413FF59EAE421A04D882F0C2
:102B30000042A0EB020011444FEAD0524FF07F4C0C
:102B40001CEA410FA2EBD15318BF9CEA026F4AD096
:102B50004FF0004C4CEA00204CEA012121FA03FC22
:102B6000B0EB0C0C0FD412F0FE0F36D05FEA4C0025
:102B70001DD5001240EBC25038BF70471CF03F0F0C
:102B800018BF70470BE0A2F101025FEA1C2040EB86
:102B9000C25038BF70471CF07F0F18BF7047C3F199
:102BA0002003994014BF401E20F0010070478008A8
:102BB0004FEA122308BF7047B0FA80FCA2EB0C0268
:102BC000CCF1280C60FA0CF093EA122F04BF00EB52
:102BD000C25070474FEAC3707047130A5FEADC10B7
:102BE00008BF7047F6E79CEA026F04D010EA5C0F5A
:102BF00008BF0020704710B5FFF745FF40DFF63EE5
:102C000081F00040704702030405060708090A0B1B
:102C10000C0D0E0F1010010200000000000000005B
:102C20000102030406070809000000000102030472
:102C3000502C00080000002094000000280100082B
:102C4000E42C000894000020A407000044010008C0
:102C50000000000000000000000000000000000074
:102C60000000000000000000000000000000000064
:102C70000000000000000000000000000000000054
:102C8000000000000000803FCDCCCC3DCDCC4C3DC1
:102C900000000000000000000000803FCDCCCC3DD3
:102CA000CDCC4C3D00000000000000000000803F43
:102CB000CDCCCC3DCDCC4C3D000000000000000050
:102CC0000000803FCDCCCC3DCDCC4C3D0000000081
:102CD00000000000000000001000000001000000E3
:042CE00000127A0064
:04000005080000ED02
:00000001FF
