:020000040800F2
:1000000088070020890100089D180008D315000802
:10001000211800088F0200085D1E00080000000083
:10002000000000000000000000000000A11800080F
:1000300091020008000000009F180008A3180008A3
:10004000A3010008A3010008A3010008A301000800
:10005000A3010008A3010008930200089902000808
:100060009F020008A5020008AB020008A3010008D7
:10007000A3010008A3010008A3010008A3010008D0
:10008000A3010008A3010008A3010008A3010008C0
:10009000A3010008A3010008A3010008B1020008A1
:1000A000A3010008A3010008A3010008A3010008A0
:1000B000A3010008A3010008A3010008A301000890
:1000C000A3010008A3010008A3010008A301000880
:1000D000A30100085D1D0008A3010008691D0008B8
:1000E000A3010008A3010008A301000800F002F822
:1000F00000F03AF80AA090E8000C82448344AAF188
:100100000107DA4501D100F02FF8AFF2090EBAE885
:100110000F0013F0010F18BFFB1A43F0010318473B
:10012000F41D0000141E0000103A24BF78C878C1E6
:10013000FAD8520724BF30C830C144BF04680C60ED
:10014000704700000023002400250026103A28BF35
:1001500078C1FBD8520728BF30C148BF0B60704739
:100160001FB51FBD10B510BD00F058F81146FFF7C0
:10017000F7FF01F085FE00F076F803B4FFF7F2FF19
:1001800003BC00F07DF8000009488047094800479B
:10019000FEE7FEE7FEE7FEE7FEE7FEE7FEE7FEE737
:1001A000FEE7FEE704480549054A064B7047000094
:1001B00005190008ED0000088801002088070020CC
:1001C00088030020880300204FF0000200B513468A
:1001D00094469646203922BFA0E80C50A0E80C5067
:1001E000B1F12001BFF4F7AF090728BFA0E80C5018
:1001F00048BF0CC05DF804EB890028BF40F8042B11
:1002000008BF704748BF20F8022B11F0804F18BF7D
:1002100000F8012B7047704770477047754600F033
:100220002BF8AE4605006946534620F00700854688
:1002300018B020B5FFF7B6FFBDE820404FF000062C
:100240004FF000074FF000084FF0000B21F00701BE
:10025000AC46ACE8C009ACE8C009ACE8C009ACE801
:10026000C0098D46704710B50446AFF300802046A4
:10027000BDE81040FFF781BF00487047240100200F
:1002800001491820ABBEFEE7260002007047FEE7DA
:100290007047012000F08CB8022000F089B80420DB
:1002A00000F086B8082000F083B8102000F080B875
:1002B00010B5202000F07CF8402000F079F8BDE86F
:1002C0001040802000F074B872B6FEE710B590F8C8
:1002D00021100022022905D00421816380F820200A
:1002E000012010BD01680B6823F00E030B6001684C
:1002F0000B6823F001030B6090F84030C46B0121C0
:1003000001FA03F3636080F8211080F82020104682
:1003100010BD000010B590F821100024022903D070
:100320000421816301243DE001680A6822F00E0285
:100330000A6001680A6822F001020A601A4A01682C
:10034000914201D1012121E0174A1432914201D199
:1003500010211BE0144A2832914201D1891515E081
:10036000114A3C32914201D189140FE00E4A5032B9
:10037000914202D14FF4803108E00B4A643291423D
:1003800002D14FF4801101E04FF08071064A083A23
:100390005160012180F82110002180F82010416B6C
:1003A00001B18847204610BD080002407047000098
:1003B000044910B50A68024202D00860FFF7F6FF50
:1003C00010BD0000140401402DE9F84FDFF8B8918A
:1003D0000024A9F1040B23460F2709F1040AABF10D
:1003E000040EC9E00125A5402A40AA427DD1674EEE
:1003F000D1F804C0ACEB0608B44532D014DCBCF133
:10040000030F3AD009DCBCF1000F2AD0BCF1010F78
:100410001CD0BCF1020F31D11DE0BCF1110F17D07F
:10042000BCF1120F2AD119E0B8F5881F19D006DCEB
:10043000B8F5803F15D0B8F5801F1FD111E0B8F591
:10044000001F0ED0B8F5041F18D10AE0CB6815E0E4
:10045000CB681B1D12E0CB6808330FE0CB680C3370
:100460000CE08B682BB1012B4FF0080303D04561E2
:1004700004E0042302E0056100E00023FF2A01D824
:10048000064601E000F104064FEA840501D9A5F112
:100490002005D6F8008007FA05FC28EA0C0803FAC4
:1004A00005F548EA0508C6F800804D68ED0062D5FC
:1004B000374DAE6946F00106AE61AD6924F0030622
:1004C00005F001050095334D06EB050CDCF80850EE
:1004D000A607360F07FA06F825EA0805DFF8B88000
:1004E000404503D14FF0000817E044E0DFF8AC804E
:1004F000404502D14FF001080FE0DFF8A4804045ED
:1005000002D14FF0020808E0DFF89880404502D1A0
:100510004FF0030801E04FF0040808FA06F848EA33
:100520000508CCF808804D68D9F80060ED024D460A
:1005300001D5164300E096432E604D68DAF800605E
:10054000AD02554601D5164300E096432E604D6836
:10055000DBF80060AD035D4601D5164300E096432D
:100560002E604D68DEF80060ED03754601D5164338
:1005700000E096432E60641C0D682A46E5407FF437
:1005800031AFBDE8F88F00000804014000001110F1
:10059000001002400000014000080140000C014032
:1005A00000100140001401400AB1016170470904C4
:1005B000FBE7000001488068704700003C00002015
:1005C0000248816802781144816070473C00002035
:1005D000074810B5016841F010010160032000F0E8
:1005E00075F80F2000F006F800F024F8002010BD88
:1005F0000020024070B50D4D04464FF47A71287802
:10060000B1FBF0F00A490968B1FBF0F000F0EEFA36
:1006100048B9102C07D200222146501E00F036F8AF
:1006200000206C6070BD012070BD00003C00002007
:10063000480000200C4808B5816941F00101816142
:10064000816901F001010091C16941F08051C161EE
:10065000C06900F0805000900448416821F0E061DA
:1006600041F00071416008BD0010024000000140EF
:10067000002809DB00F01F020121914040098000A1
:1006800000F1E020C0F8001170470000F0B40E4BFC
:100690001B680C46C3F30223C3F10705042D00D9E0
:1006A0000425191D072901D2002300E0DB1E0126C5
:1006B00006FA05F1491E214099409E40761E1640DB
:1006C0003143F0BC01F0CBBB0CED00E0064900F07B
:1006D000070208684FF6FF03184040EA0220034A69
:1006E00010430860704700000CED00E00000FA05C0
:1006F000BFF34F8F05480168054A01F4E0611143DB
:100700000160BFF34F8F00BFFDE700000CED00E07C
:100710000400FA052DE9F0470F46050061D0434E6D
:10072000306800F00700B84209D2306820F00700B6
:1007300038433060306800F00700B84251D1286873
:100740003B4C810712D5400703D5606840F4E06058
:1007500060602878000703D5606840F460506060EE
:100760006068A96820F0F000084360602878C0073E
:1007700028D06868012810D02168022810D0890785
:1007800000292EDA616821F0030101436160FFF75F
:1007900011FF804641F288390DE021688903EFE7B7
:1007A0008901EDE7FFF706FFA0EB0801494502D9F3
:1007B0000320BDE8F0876068696800F00C00B0EBCA
:1007C000810FEFD1306800F00700B8420BD93068D4
:1007D00020F0070038433060306800F00700B8426E
:1007E00001D00120E5E72878400705D56068E96871
:1007F00020F4E060084360602878000706D5606850
:10080000296920F4605040EAC100606000F038F8C7
:100810006168084AC1F30311515CC8400649086089
:1008200006480068FFF7E6FE0020C2E7002002400D
:1008300000100240FA1E000848000020400000207E
:100840000448054900684968044AC1F30221515C23
:10085000C840704748000020001002400A1F0008EE
:100860000448054900684968044AC1F3C221515C43
:10087000C840704748000020001002400A1F0008CE
:100880000E4A51680E4801F00C03042B11D0082BBE
:100890000FD10C48C1F38343C903C05C0AD551682A
:1008A000084AC1F34041921E515C054A5043B0FBD7
:1008B000F1F07047044948437047000000100240BF
:1008C00000127A00EA1E000800093D002DE9F84FE9
:1008D000040070D02078C04DC00749D06868C0F3CC
:1008E0008100012807D06868C0F38100022809D17F
:1008F0006868C00306D52868800339D56068002879
:10090000E7D035E06068B0F5803F0BD010B1B0F5AE
:10091000A02F11D0286820F480302860286820F4A7
:10092000802002E0286840F480302860606890B140
:10093000FFF740FE06460AE0286840F48020286061
:10094000F0E700BFFFF736FE801B642873D82868E5
:100950008003F7D50CE0FFF72DFE064605E000BF4B
:10096000FFF728FE801B6428F0D828688003F7D49E
:1009700020789A4E80074FF001094FF0000839D5D2
:10098000686810F00C0F07D06868C0F38100022877
:1009900009D16868C00306D42868800714D5206987
:1009A000012808D110E02069B0B1C6F80090FFF727
:1009B00001FE074605E00AE1FFF7FCFDC01B022827
:1009C000C4D828688007F7D52868616920F0F80046
:1009D00040EAC10028600DE0C6F80080FFF7EAFD9C
:1009E000074604E0FFF7E6FDC01B022823D828686D
:1009F0008007F7D4207800072CD57948A169D9B1B0
:100A0000C0F80090FFF7D6FD074604E0FFF7D2FDDF
:100A1000C01B02280FD8686A8007F7D571484FF4C9
:100A2000FA510068B0FBF1F0009000BF0098411E41
:100A30000091FAD20EE080E0C0F80080FFF7BAFD26
:100A4000074604E0FFF7B6FDC01B022875D8686AA8
:100A50008007F7D42078400760D5E8690027C000F8
:100A600008D4E86940F08050E861E869012700F0A7
:100A7000805000905C480168C90513D40168834622
:100A800041F480710160FFF795FD824606E000BFEA
:100A9000FFF790FDA0EB0A0064284ED8DBF80000B9
:100AA000C005F5D5E06801280AD008B1052813D0A3
:100AB000286A20F001002862286A20F0040002E081
:100AC000286A40F001002862E06841F2883B98B152
:100AD000FFF770FD82460BE0286A40F004002862B0
:100AE000EEE700BFFFF766FDA0EB0A0159455AD8B3
:100AF000286A8007F6D50CE0FFF75CFD824605E02A
:100B0000FFF758FDA0EB0A0159454CD8286A800729
:100B1000F6D41FB1E86920F08050E861E06988B33D
:100B20006968C1F38101022944D00228C6F86080B7
:100B300004D0FFF73FFD044638E034E0FFF73AFD0C
:100B4000074604E0FFF736FDC01B02282BD82868B3
:100B50008001F7D4206AB0F5803F05D16868A168AC
:100B600020F4003008436860D4E90801084369684C
:100B700021F4741108436860C6F86090FFF71AFD0D
:100B8000044606E025E000BFFFF714FD001B022825
:100B900009D828688001F7D51BE000BFFFF70AFDE0
:100BA000001B022802D90320BDE8F88F28688001C5
:100BB000F4D40EE00128F7D06868226A00F480318E
:100BC000914204D1616A00F47010884201D0012082
:100BD000EAE70020E8E7000000100240000042427F
:100BE00080044242480000200070004010B5401EC2
:100BF000B0F1807F01D3012010BD4FF0E02460618F
:100C00000F21601701F02BF90020A061072020615F
:100C1000002010BD70B590F83C20012A26D0012498
:100C200080F83C40022280F83D2003685A689D68A5
:100C300022F070060A6832435A600D4B02689A42ED
:100C400008D0B2F1804F05D00A4B9A4202D00A4B2D
:100C50009A4204D1496825F080031943916080F8D5
:100C60003D40002180F83C10084670BD022070BD58
:100C7000002C0140000400400008004010B50400B2
:100C800003D094F83D0010B107E0012010BD002012
:100C900084F83C00204600F01FF8022084F83D0054
:100CA000211D206800F030FE012084F8460084F801
:100CB0003E0084F83F0084F8400084F8410084F846
:100CC000420084F8430084F8440084F8450084F826
:100CD0003D00002010BD000008B5006806498842AC
:100CE00008D10648C16941F00401C161C06900F042
:100CF0000400009008BD0000000800400010024001
:100D000090F83D10012901D001207047022180F8A0
:100D10003D1000680B49884208D0B0F1804F05D0E3
:100D20000949884202D00949884204D1816801F00A
:100D30000701062903D0016841F00101016000208C
:100D400070470000002C01400004004000080040F3
:100D500070B5044690F83C000025012817D0012604
:100D600084F83C60022084F83D002068826822F00C
:100D7000770222F47F4282600868502838D00DDC68
:100D800020284FD005DC90B3102811D14AE0022072
:100D900070BD302846D040280AD13BE060282FD0D3
:100DA00070280DD0B0F5805F03D0B0F5005F12D091
:100DB000012584F83D60002084F83C00284670BD81
:100DC000CB68D1E90121206800F0E7FD2068816847
:100DD00041F0770109E0CB68D1E90121206800F0FA
:100DE000DCFD2068816841F480418160E1E719E021
:100DF000CA684968206800F085FE5021206806E036
:100E0000CA684968206800F08EFE6021206800F002
:100E1000CEFDCEE7CA684968206800F073FE402125
:100E20002068F4E7226801461046F0E700B585B077
:100E30000021009101910291039100680B498842C1
:100E400012D10B48816941F00801816180696946CE
:100E500000F0080004904FF47070009002200190A0
:100E600003900448FFF7B0FA05B000BD0008004049
:100E700000100240000C014070B5044690F83C00A0
:100E800000260D4601280FD0012084F83C006AB1ED
:100E9000042A1DD0082A2FD00C2A3FD0012600207A
:100EA00084F83C00304670BD022070BD206800F020
:100EB00087FD2068816941F00801816120688169AE
:100EC00021F004018161206881692A69114311E0E0
:100ED000206800F09DFD2068816941F40061816116
:100EE0002068816921F480618161206881692A69B3
:100EF00041EA02218161D2E7206800F0B5FD206857
:100F0000C16941F00801C1612068C16921F0040193
:100F1000C1612068C1692A69114311E0206800F0AD
:100F2000CFFD2068C16941F40061C1612068C169D9
:100F300021F48061C1612068C1692A6941EA022106
:100F4000C161ACE710B5040003D094F83D0010B1C6
:100F500007E0012010BD002084F83C00204600F08E
:100F60001EF8022084F83D00211D206800F0CCFC12
:100F7000012084F8460084F83E0084F83F0084F89D
:100F8000400084F8410084F8420084F8430084F86B
:100F9000440084F8450084F83D00002010BD7047EF
:100FA00010B50446022249B104290ED0082913D0F5
:100FB00094F84100012816D0012010BD94F83E009D
:100FC0000128F9D184F83E200FE094F83F00012871
:100FD000F2D184F83F2008E094F840000128EBD1DA
:100FE00084F8402001E084F841200122206800F0CC
:100FF000C7FC0F492068884203D1426C42F400428A
:1010000042642068884208D0B0F1804F05D0094979
:10101000884202D00849884204D1816801F0070162
:10102000062903D0016841F001010160002010BDD4
:10103000002C014000040040000800407047704749
:10104000F8B5016804460868CA684B6910F00F0FCC
:101050004FF0000559D003F0010602F490773743B2
:1010600065D0C10705D0D10503D5616C41F0010100
:101070006164410705D5D90703D0616C41F00201D5
:101080006164810705D5D90703D0616C41F0040183
:101090006164010707D502F02001314303D0616C80
:1010A00041F008016164616C00293AD0800604D5E2
:1010B000900602D5204600F077FD20684069616CFB
:1010C000C0F38010090700D460B3204600F045FD4E
:1010D00020684069400621D52068143050E8001F80
:1010E00021F0400140E80012002AF5D1E06BA8B1E0
:1010F0006D494163E06BFFF70DF9002811D0E06BFB
:10110000416B01B0BDE8F040084783060FD5930658
:101110000DD52046BDE8F84000F046BD2046FFF75B
:101120008EFFF8BD2046FFF78AFF6564F8BD266B89
:101130002023012E7CD1C6067AD5D60678D508683C
:101140004868009048694FF00206400640D5E16BC0
:10115000086840680004000CE8D0A28D8242E5D9FE
:10116000E085886920282DD020680C3050E8001FC9
:1011700021F4807140E80012002AF5D12068143073
:1011800050E8001F21F0010140E80012002AF5D1CB
:101190002068143050E8001F21F0400140E80012A0
:1011A000002AF5D184F84230256320680C3050E8DD
:1011B000001F21F0100140E80012002AF5D1E06B79
:1011C000FFF784F86663A08DE18D401A81B22AE0B2
:1011D000A08DE18D401A81B2E08D0028A6D00029B3
:1011E000A4D022680C3252E8000F20F4907042E83C
:1011F0000007002FF5D12068143050E8002F22F0AE
:10120000010240E80027002FF5D184F84230256321
:1012100020680C3050E8002F22F0100240E8002334
:10122000002BF5D166632046FFF708FFF8BDFFE706
:1012300005062BD5150629D594F841002128F5D1AE
:10124000A068B0F5805F01D12069B0B1206A411C6F
:101250002162216800784860E08C401E0004000C88
:10126000E084E3D12068C16821F08001C16020687A
:10127000C16841F04001C160D8E7206A0088C0F32E
:1012800008004860206A801C2062E5E74006CDD552
:101290005006CBD5CA68204622F04002CA6084F8C6
:1012A000413000F095F9C1E74B1B000870B5040010
:1012B00004D094F84100002510B106E0012070BD73
:1012C00084F84050204600F023F8242084F84100A0
:1012D0002068C16821F40051C160204600F0C6FCBE
:1012E0002068016921F4904101612068416921F081
:1012F0002A0141612068C16841F40051C160656400
:10130000202084F8410084F842006563002070BD0D
:1013100070B586B00024009401940294039403688D
:101320002E482D4E022103220515B34226D1836992
:1013300043F480438361836903F4804304938369A6
:1013400043F0040383618069254E00F0040004909B
:101350000802CDE90001039269463046FFF734F8F0
:10136000CDE90054694630460294FFF72DF800227B
:1013700011462520FFF78AF9252028E0194EB342AF
:1013800027D1C36943F48023C361C36903F4802375
:101390000493836943F0080383618069CDE90051B8
:1013A00000F00800CDE903200F4D69462846FFF7FD
:1013B0000BF8E814CDE90004694628460294FFF7CB
:1013C00003F8002211462720FFF760F92720FFF7D6
:1013D0004FF906B070BD0000003801400010024017
:1013E0000008014000480040000C014090F84230E5
:1013F000202B01D00220704721B11AB100230363D2
:1014000000F090BC012070472DE9FE4F07460068B0
:1014100063490126634C4FF480584FF002094FF4A2
:10142000005A4FF4804B884212D15F490878A528B2
:1014300002D108795A2815D0FFF75AF905225A49DE
:101440005A48FFF7D3FF052257495848FFF7CEFF08
:101450005749386888427CD15348001F0178A52934
:101460004BD04DE053484A7802708A784270C97870
:1014700081700088ADF800008DF80210009800F02F
:1014800079FC494D00204C4915F1060531F8102032
:10149000520025F81020401C0428F7DBCDF800800E
:1014A000CDE90146B5F9002023460021434800F06C
:1014B000B8F9CDF800A0CDE90149B5F902202346DD
:1014C00004213E4800F0ADF94FF480718DE8120818
:1014D000B5F904203A4B0821384800F0A2F9082158
:1014E00000914FF40040CDE90140B5F906202346B4
:1014F0000C21324800F095F9A5E7C1780D2910D0EC
:10150000FFF7F6F828490422091F2E48FFF76EFF5F
:1015100003B02549BDE8F04F0422091F2948FFF711
:1015200065BF294942780A70807848700888ADF80C
:101530000000009800F070FCCDF80080234DCDE94C
:101540000146B5F90020234600211C4800F069F946
:1015500000E023E0CDF800A0CDE90149B5F9022073
:1015600023460421154800F05CF94FF480718DE8A2
:101570001208B5F90420124B0821104800F051F967
:101580000820CDE900044FF400410291B5F906208E
:1015900023460C21094800F044F9B9E7BDE8FE8F65
:1015A00000480040000C014020000020DC0000202A
:1015B0000038014000000020140000204C000020F2
:1015C00000080140940000202E000020340000207C
:1015D0007047FEE72DE9F04385B000243E480094B3
:1015E000019402940394816941F020018161816931
:1015F00001F020010491816941F004018161816958
:1016000001F004010491816941F008018161806960
:10161000DFF8C88000F008004FF20B0504900022AC
:1016200029464046FEF7C0FFDFF8B4904FF48077BC
:10163000002239464846FEF7B7FFFF2000902948B0
:10164000CDE9010469464846FEF7BEFE0095022634
:1016500001250396CDE9015469464046FEF7B4FEE4
:1016600000970396CDE9015469464846FEF7ACFE63
:10167000002211460620FFF709F80620FEF7F8FFC2
:10168000002211460720FFF701F80720FEF7F0FFC0
:10169000002211460820FEF7F9FF0820FEF7E8FFB8
:1016A000002211460920FEF7F1FF0920FEF7E0FFB6
:1016B000002211460A20FEF7E9FF0A20FEF7D8FFB4
:1016C000002211461720FEF7E1FF1720FEF7D0FF9A
:1016D00005B0BDE8F083000000100240000C01409E
:1016E000000801400000111010B58EB000240794CE
:1016F000089409940A940B941C2168460C94FEF7F4
:1017000063FD2A48284901604721C0E9011463218B
:10171000C0E903148461FFF7B1FA08B1FEF7D4FD04
:101720004FF48050079007A92048FFF711FB08B13C
:10173000FEF7CAFD1D48FFF705FC08B1FEF7C4FD22
:101740000B940BA919480C94FFF764FA08B1FEF743
:10175000BBFD6020CDE900040294002269461348D5
:101760000494FFF789FB08B1FEF7AEFD0422694639
:101770000E48FFF781FB08B1FEF7A6FD0822694677
:101780000A48FFF779FB08B1FEF79EFD0C22694677
:101790000648FFF771FB08B1FEF796FD0348FFF717
:1017A00045FB0EB010BD0000000800404C000020BA
:1017B0000C4810B50A4901604FF4E1314160002145
:1017C00081600C22C160C0E904128161C161FFF730
:1017D0006DFD002803D0BDE81040FEF775BD10BDBB
:1017E00000380140940000200C4810B50A490160FF
:1017F0004FF4E1314160002181600C22C160C0E9F9
:1018000004128161C161FFF751FD002803D0BDE8DA
:101810001040FEF759BD10BD00480040DC0000201C
:10182000FEE72DE9F0410D46DDE90618089F161E7A
:10183000044619DD01221846FEF7B6FE002239469D
:101840004046FEF7B1FE3DB1042D08D02068082DBA
:1018500008D00664BDE8F08120684663FAE7206896
:101860008663F7E7C663F5E700221846FEF79CFE9D
:10187000012239464046FEF797FE704235B1042DED
:1018800007D02168082D07D00864E3E72168486382
:10189000E0E721688863DDE7C863DBE7FEE77047C0
:1018A0007047FEF78DBE30B58FB028216846FEF731
:1018B0008BFC14210AA8FEF787FC01210804CDE95E
:1018C00000100024029402250491CDE907504FF442
:1018D000E01009906846FEF7F9FF08B172B6FEE71E
:1018E0000F20CDE90A054FF48060CDE90C400221BC
:1018F0000AA80E94FEF70EFF002801D072B6FEE78C
:101900000FB030BD70470000F0B50268194B1A4C9B
:101910001A4D4FF08047984205D0B84203D0A042FC
:1019200001D0A84203D122F070064A68324398429F
:1019300005D0B84203D0A04201D0A84203D122F47E
:101940004074CA6822434C6922F08002224302603C
:101950008A68C2620A688262984201D10969016399
:10196000012141610169C90703D0016921F0010129
:101970000161F0BD002C014000040040000800405F
:1019800010B501F01F030121046A99408C430462E1
:10199000016A9A401143016210BD10B5846842EAA1
:1019A000032224F47F440A432243826010BD8268EC
:1019B00022F070020A4342F0070181607047000084
:1019C00030B5036A026A22F0010202624268846949
:1019D00024F073050C682C4323F002058B682B431D
:1019E0000A4DA8420BD123F00805CB6822F44072BF
:1019F0002B434D6923F0040315438A692A4342604F
:101A0000846149684163036230BD0000002C0140DD
:101A100030B5026A036A23F01003036243688469E5
:101A20000D6824F4E64444EA05248D6822F020027F
:101A300042EA05120B4DA8420ED1CD6822F0800279
:101A400042EA05124D6923F4406343EA85038D6938
:101A500022F0400243EA8503436084614968816360
:101A6000026230BD002C014030B5036A026A22F4E4
:101A7000807202624268C46923F4007324F0730523
:101A80000C682C438D6843EA05230C4DA8420ED107
:101A9000CD6823F4006343EA05234D6922F44052E4
:101AA00042EA05128D6923F4806342EA051242601E
:101AB000C4614968C163036230BD0000002C01406D
:101AC00030B5046A026A22F4805202624268C36935
:101AD0000D6823F4E64343EA05238D6824F400549B
:101AE00044EA0534064DA84204D14D6922F48042EF
:101AF00042EA85124260C36149680164046230BDF4
:101B0000002C014010B5036A046A24F00104046249
:101B1000846924F0F00444EA021423F00A020A4320
:101B20008461026210BD10B5036A046A24F01004D7
:101B30000462846923F0A00324F4704444EA02326E
:101B400043EA01118261016210BD10B5406A0021B3
:101B5000C185C184FFF773FA10BD01680C3151E8EB
:101B6000002F22F4907241E80023002BF5D1016888
:101B7000143151E8002F22F0010241E80023002B2C
:101B8000F5D1016B012909D101680C3151E8002F11
:101B900022F0100241E80023002BF5D1202180F82B
:101BA000421000210163704708B590F842102229C5
:101BB00001D0022008BD82684FF480539A4201D1BF
:101BC000016921B1816A9A421BD04AB10AE00268D8
:101BD000816A5268C2F308020A80816A891C08E09F
:101BE000026972B10268526802F07F020A70816A6B
:101BF000491C8162C18D491E0904090CC18503D0AD
:101C00001BE002685268F1E70168CA6822F020020E
:101C1000CA600168CA6822F48072CA6001684A69B1
:101C200022F001024A61202180F842100021416324
:101C3000026B012A03D0FFF7E7FB002008BD016318
:101C400001680C3151E8002F22F0100241E8002316
:101C5000002BF5D101680A68D20602D50A684968E6
:101C60000091818DFFF7EAF9E7E7000070B50446BF
:101C700000680169E26821F4405111430161216962
:101C8000A0680843616908432168CA6841F20C638F
:101C90009A430243CA6020684169A26921F44071F5
:101CA000114341611E492068884202D1FEF7D8FDE8
:101CB00001E0FEF7C5FD00EBC00101EB001260681A
:101CC00064218000B2FBF0F3B3FBF1F36FF0180670
:101CD0007343B2FBF0F5B2FBF0F605EB830532235C
:101CE00003EB0515B5FBF1F5B6FBF1F605F0F005D4
:101CF00005EB0615B2FBF0F6B2FBF0F0B0FBF1F02D
:101D00006FF01802504306EB800003EB0010B0FBAD
:101D1000F1F0216800F00F002844886070BD0000D9
:101D20000038014081628285C28500214164222100
:101D300080F84210016921B10168CA6842F48072DA
:101D4000CA6001684A6942F001024A610068C168DC
:101D500041F02001C1600020704700000148FFF7FA
:101D60006FB90000940000200148FFF769B9000036
:101D7000DC000020F0B526480022264990F801C07A
:101D8000BCF1200F32D1A1F114050020AE782C1D3A
:101D90006D78A1F10803A6F16407A5F1640E822E07
:101DA00001D2462E04D824F8102023F810700AE03F
:101DB000822D01D2462D02D823F8102001E023F80D
:101DC000107024F810E0401C0428E8DB18882588EF
:101DD000401B088058886588284448809888A588D2
:101DE000401B8880D888E3881844C88031236FF06E
:101DF0003000BCF1280F07D0BCF1300F03D10A80AE
:101E00004B808880CA80F0BD0A8048808B80F9E7CB
:101E100020000020140000200F49881C0A78803A16
:101E200002804B784FF00001A3F18003438000F162
:101E3000040009D01BB10180418081800AE002804A
:101E400042808280C2807047002BF4D001804380A2
:101E50005A428280C18070472E000020FEE70907A9
:101E6000090E002804DB00F1E02080F80014704720
:101E700000F00F0000F1E02080F8141D7047000012
:101E8000FEF7A6FBFFF70FFDFFF7A4FBFFF72CFC07
:101E9000FFF7AAFCFFF78CFC0F48FEF731FF00218B
:101EA0000D48FFF77DF804210B48FFF779F808216A
:101EB0000948FFF775F80C210748FFF771F805226C
:101EC00006490748FFF792FA04490422091F05480A
:101ED000FFF78CFAFEE700004C00002020000020F5
:101EE000DC00002094000020010202030405060724
:101EF00008090A0B0C0D0E0F101000000000000066
:101F000000000102030406070809000000000102A6
:101F100003040000341F0008000000204C000000F3
:101F200028010008801F00084C0000203C0700002A
:101F30004401000800000000000000000000000054
:101F40000000000000000000000000000000000091
:101F50000000000000000000000000000000000081
:101F60000000000000000000000000000000000071
:101F700001000000100000000000000000127A00C4
:04000005080000ED02
:00000001FF
